:100000000C948D010C94AA010C94AA010C94AA01E1
:100010000C94AA010C94AA010C94AA010C94AA01B4
:100020000C94AA010C94AA010C94AA010C94AA01A4
:100030000C94AA010C94AA010C94AA010C94AA0194
:100040000C94AA010C94AA010C94AA010C94AA0184
:100050000C94AA010C94AA010C94AA010C94AA0174
:100060000C94AA010C94AA01BC5F9C60A4618462F8
:10007000B6639664B0659F66B567FFFF0000000039
:1000800000000000002F000000000700070000141F
:100090007F147F1400242A7F2A120062640813232D
:1000A00000364955225000000503000000001C22C4
:1000B0004100000041221C000014083E0814000802
:1000C000083E0808000000A06000000808080808B2
:1000D000000060600000002010080402003E51494A
:1000E000453E0000427F40000042615149460021E8
:1000F00041454B31001814127F1000274545453902
:10010000003C4A494930000171090503003649495C
:10011000493600064949291E000036360000000015
:100120005636000000081422410000141414141460
:100130000000412214080002015109060032495909
:10014000513E007C1211127C007F49494936003E25
:1001500041414122007F4141221C007F49494941E0
:10016000007F09090901003E4149497A007F0808DA
:10017000087F0000417F4100002040413F01007F97
:1001800008142241007F40404040007F020C027F63
:10019000007F0408107F003E4141413E007F090975
:1001A0000906003E4151215E007F0919294600469B
:1001B000494949310001017F0101003F4040403F72
:1001C000001F2040201F003F4038403F00631408BC
:1001D0001463000708700807006151494543000097
:1001E0007F41410000552A552A55000041417F00BA
:1001F00000040201020400404040404000000102AF
:100200000400002054545478007F48444438003897
:100210004444442000384444487F0038545454181F
:1002200000087E0901020018A4A4A47C007F080431
:1002300004780000447D4000004080847D00007F01
:10024000102844000000417F4000007C041804781E
:10025000007C0804047800384444443800FC24241A
:1002600024180018242418FC007C08040408004802
:100270005454542000043F444020003C4040207C23
:10028000001C2040201C003C4030403C0044281012
:100290002844001CA0A0A07C004464544C440000EE
:1002A000087741000000006300000000417708006B
:1002B000000804080804003A4040207A003D40400D
:1002C000403D002154545479007D1211127D0039B3
:1002D00044444439003D4242423D000205020000D0
:1002E000007E01495573007C1010081CAE2000B040
:1002F000C8001040813FA1A6A83FA4D300D5F0D9E3
:1003000022DA12DB208D14537472696E67206672D4
:100310006F6D20464C415348000011241FBECFEFA3
:10032000D8E0DEBFCDBF11E0A0E0B1E0E0EAF9E047
:1003300002C005900D92AA32B107D9F721E0AAE2D6
:10034000B1E001C01D92AD32B207E1F70E94B604E0
:100350000C94CE040C9400001092B90088E48093B1
:10036000B80084E08093BC00089594EA9093BC00A8
:1003700020E431E009C02150310931F480912C0191
:10038000816080932C0108959091BC0099231CF00A
:100390002115310581F78093BB0084E88093BC0070
:1003A00080E491E008C0019731F480912C018260D3
:1003B00080932C0108952091BC00222314F0009713
:1003C00091F7089584E98093BC0008958093BB0061
:1003D00084E88093BC0080E491E008C0019731F488
:1003E00080912C01846080932C0108952091BC00A1
:1003F000222314F0009791F708950F931F93CF9342
:10040000DF938C01D62F88E70E94B50180E00E941F
:10041000E601C0E007C0F801EC0FF11D80810E94E9
:10042000E601CF5FCD17B8F30E94E201DF91CF91D3
:100430001F910F910895EF92FF920F931F93CF9307
:10044000DF937C018B0188E70E94B50180E40E9464
:10045000E601C0E0D0E007C0F701EC0FFD1F80818E
:100460000E94E6012196C017D107B0F30E94E20175
:10047000DF91CF911F910F91FF90EF900895CF934F
:10048000DF9300D000D01F92CDB7DEB7813818F5CA
:10049000683008F5EAE2F1E08083618360556983A2
:1004A00091E29A8392E0980F9F709B8390E002966E
:1004B000807F9927959587959595879595958795AB
:1004C00095958795805F8C838FE78D8365E0CE015E
:1004D00001960E94FD010F900F900F900F900F90CA
:1004E000DF91CF910895982F990F980F892F880F3A
:1004F0000E943F02089560E080E00E947302089528
:100500001F93CF93DF93CDB7DEB7C058D1090FB695
:10051000F894DEBF0FBECDBFFE01319680E8DF014B
:100520001D928A95E9F710E00BC0612F80E00E94D0
:10053000730260E870E0CE0101960E941B021F5F0B
:10054000183098F30E947B02C058DF4F0FB6F89422
:10055000DEBF0FBECDBFDF91CF911F9108951F93D6
:10056000CF93DF93CDB7DEB76C970FB6F894DEBFAD
:100570000FBECDBF182F0E94AC0120E00EC0822F0D
:1005800090E0FC01E451FD4FE491A1E0B0E0AC0F3C
:10059000BD1FA80FB91FEC932F5F2B3180F31C8F69
:1005A0006CE1CE0101960E94FD010E9480026C96D2
:1005B0000FB6F894DEBF0FBECDBFDF91CF911F9174
:1005C0000895CF92DF92EF92FF920F931F93CF93F4
:1005D000DF93CDB7DEB76D970FB6F894DEBF0FBED1
:1005E000CDBF893001F118F4883039F052C08A301B
:1005F000E9F18D3009F447C04CC00AE211E0F8017E
:100600008081909100016181891B0E94730280E2C8
:100610000E94E102F8018081909100016181891BB3
:100620000E94730278C180912A0190910001292FC4
:1006300030E0220F331F220F331FB901680F711DE5
:1006400045E150E0FA01E21BF30B6E177F0740F41F
:10065000990F990F60912B01890F0E9473025BC162
:1006600060912B0185E10E94730255C180912B019D
:10067000873008F050C160910001680F80912A0115
:100680000E94730248C160912B0180E00E947302B6
:1006900042C150912A015A3708F03DC1803208F416
:1006A0003AC18052E9E6F0E0E4918E1798F423C055
:1006B000F901EE0FFF1FE859FF4FE491F0E0B0970A
:1006C000282F30E0E217F30719F4FB01849110C0E2
:1006D0009F5F01C090E0292F30E0F901EE0FFF1F6E
:1006E000BF0167597F4FFB0144914F3F09F78FEFDF
:1006F0008F3F09F410C190910001923009F0DDC0E4
:10070000252F30E0245F3F4F2138310508F003C129
:10071000F12C4FC06F2D70E0FB01EE0FFF1F21E0A9
:1007200030E02C0F3D1FE20FF31F15861486282F93
:1007300030E0F901EE0FFF1FE20FF31FEE0FFF1F76
:10074000E60FF71FE458FF4FE49090E02FC0A92F69
:10075000B0E02E2D30E0092E02C0359527950A9481
:10076000E2F720FF22C0AA0FBB1F21E030E06901A1
:100770000A2E02C0CC0CDD1C0A94E2F78B01000F9C
:10078000111FE1E0F0E0EC0FFD1FE00FF11F4485C9
:1007900055854C295D29119602C0220F331FAA9559
:1007A000E2F7242B352B358724879F5F983078F22A
:1007B000F39435E03F1508F0ADCF20E015C0822F4F
:1007C00090E0880F991FE1E0F0E0EC0FFD1FE80FCB
:1007D000F91F348530830196E1E0F0E0EC0FFD1F56
:1007E000E80FF91F30832F5F263048F36CE070E08C
:1007F000CE0101960E941B02EAE2F1E081818F5452
:10080000898F81E28A8F808192E0980F9F709B8F01
:1008100090E00296807F9927959587959595879585
:100820009595879595958795805F8C8F8FE78D8FB0
:1008300065E0CE0149960E94FD0120E015C0822F9F
:1008400090E0880F991FE1E0F0E0EC0FFD1FE80F4A
:10085000F91F358530830196E1E0F0E0EC0FFD1FD4
:10086000E80FF91F30832F5F263048F36CE070E00B
:10087000CE0101960E941B020AE211E0F80181817B
:100880008055898F80819EE0980F9F709B8F90E0AC
:100890000E96807F9927929582958F7089279F70F9
:1008A0008927805F8C8F65E0CE0149960E94FD010B
:1008B000F8018081845F80832EC0252F30E02A5F7D
:1008C0003F4F2138310538F590E018C0282F30E02F
:1008D000492F50E0F901EE0FFF1FE20FF31FEE0F5B
:1008E000FF1FE40FF51FE458FF4FE491A1E0B0E0D3
:1008F000AC0FBD1FA40FB51FEC939F5F963030F374
:1009000066E070E0CE0101960E941B02EAE2F1E08F
:1009100080818A5F80836D960FB6F894DEBF0FBE2C
:10092000CDBFDF91CF911F910F91FF90EF90DF909E
:10093000CF900895CF93DF93EC0103C021960E94DE
:10094000E10288818111FACFDF91CF910895CF9391
:10095000DF93FC0103C00E94E102FE01EF0121963A
:1009600084918111F8CFDF91CF9108958FEA0E9491
:10097000AF0281E091E00E949A0461E080E00E9471
:10098000730285E191E00E949A0466E080E00E9493
:10099000730287E093E00E94A704FFCFF894FFCF93
:1009A000015368652073656C6C73207365617368AF
:1009B000656C6C7300646F776E2062792074686573
:0A09C0002073656173686F726500B3
:00000001FF
